{
    "contractName": "Vote",
    "abi": [
        {
            "inputs": [
                {
                    "internalType": "address",
                    "name": "_merkleTreeAddress",
                    "type": "address"
                }
            ],
            "stateMutability": "nonpayable",
            "type": "constructor"
        },
        {
            "anonymous": false,
            "inputs": [
                {
                    "indexed": false,
                    "internalType": "uint256",
                    "name": "id",
                    "type": "uint256"
                },
                {
                    "indexed": false,
                    "internalType": "string",
                    "name": "name",
                    "type": "string"
                }
            ],
            "name": "ElectionCreated",
            "type": "event"
        },
        {
            "anonymous": false,
            "inputs": [
                {
                    "indexed": false,
                    "internalType": "uint256",
                    "name": "electionId",
                    "type": "uint256"
                },
                {
                    "indexed": false,
                    "internalType": "uint256",
                    "name": "candidateId",
                    "type": "uint256"
                }
            ],
            "name": "VoteCast",
            "type": "event"
        },
        {
            "inputs": [
                {
                    "internalType": "uint256",
                    "name": "_electionId",
                    "type": "uint256"
                },
                {
                    "internalType": "string",
                    "name": "_name",
                    "type": "string"
                }
            ],
            "name": "addCandidate",
            "outputs": [],
            "stateMutability": "nonpayable",
            "type": "function"
        },
        {
            "inputs": [
                {
                    "internalType": "string",
                    "name": "_name",
                    "type": "string"
                },
                {
                    "internalType": "string[]",
                    "name": "_candidateNames",
                    "type": "string[]"
                }
            ],
            "name": "createElection",
            "outputs": [],
            "stateMutability": "nonpayable",
            "type": "function"
        },
        {
            "inputs": [
                {
                    "internalType": "uint256",
                    "name": "",
                    "type": "uint256"
                }
            ],
            "name": "elections",
            "outputs": [
                {
                    "internalType": "uint256",
                    "name": "id",
                    "type": "uint256"
                },
                {
                    "internalType": "string",
                    "name": "name",
                    "type": "string"
                },
                {
                    "internalType": "bool",
                    "name": "isActive",
                    "type": "bool"
                },
                {
                    "internalType": "uint256",
                    "name": "candidatesCount",
                    "type": "uint256"
                }
            ],
            "stateMutability": "view",
            "type": "function"
        },
        {
            "inputs": [],
            "name": "electionsCount",
            "outputs": [
                {
                    "internalType": "uint256",
                    "name": "",
                    "type": "uint256"
                }
            ],
            "stateMutability": "view",
            "type": "function"
        },
        {
            "inputs": [
                {
                    "internalType": "uint256",
                    "name": "_electionId",
                    "type": "uint256"
                }
            ],
            "name": "endElection",
            "outputs": [],
            "stateMutability": "nonpayable",
            "type": "function"
        },
        {
            "inputs": [
                {
                    "internalType": "uint256",
                    "name": "_electionId",
                    "type": "uint256"
                }
            ],
            "name": "getLiveVotes",
            "outputs": [
                {
                    "internalType": "uint256[]",
                    "name": "",
                    "type": "uint256[]"
                },
                {
                    "internalType": "string[]",
                    "name": "",
                    "type": "string[]"
                }
            ],
            "stateMutability": "view",
            "type": "function"
        },
        {
            "inputs": [
                {
                    "internalType": "uint256",
                    "name": "_electionId",
                    "type": "uint256"
                }
            ],
            "name": "getResults",
            "outputs": [
                {
                    "internalType": "uint256[]",
                    "name": "",
                    "type": "uint256[]"
                },
                {
                    "internalType": "string[]",
                    "name": "",
                    "type": "string[]"
                }
            ],
            "stateMutability": "view",
            "type": "function"
        },
        {
            "inputs": [
                {
                    "internalType": "address",
                    "name": "",
                    "type": "address"
                },
                {
                    "internalType": "uint256",
                    "name": "",
                    "type": "uint256"
                }
            ],
            "name": "hasVoted",
            "outputs": [
                {
                    "internalType": "bool",
                    "name": "",
                    "type": "bool"
                }
            ],
            "stateMutability": "view",
            "type": "function"
        },
        {
            "inputs": [],
            "name": "merkleTree",
            "outputs": [
                {
                    "internalType": "contract MerkleTree",
                    "name": "",
                    "type": "address"
                }
            ],
            "stateMutability": "view",
            "type": "function"
        },
        {
            "inputs": [
                {
                    "internalType": "uint256",
                    "name": "_electionId",
                    "type": "uint256"
                },
                {
                    "internalType": "uint256",
                    "name": "_candidateId",
                    "type": "uint256"
                },
                {
                    "internalType": "bytes32[]",
                    "name": "proof",
                    "type": "bytes32[]"
                },
                {
                    "internalType": "bytes32",
                    "name": "leaf",
                    "type": "bytes32"
                }
            ],
            "name": "vote",
            "outputs": [],
            "stateMutability": "nonpayable",
            "type": "function"
        }
    ],
    "bytecode": "608034607057601f6110c238819003918201601f19168301916001600160401b03831184841017607457808492602094604052833981010312607057516001600160a01b03811690819003607057600380546001600160a01b03191691909117905560405161103990816100898239f35b5f80fd5b634e487b7160e01b5f52604160045260245ffdfe6080806040526004361015610012575f80fd5b5f3560e01c908163027d01f314610bb9575080631750a3d014610a0b578063223a594a14610722578063349813b214610357578063425458251461030a5780635e6fef01146102a357806381a60c0d1461015c5780639a74c6951461013f5780639c98bcbb146100b65763bb7df0521461008a575f80fd5b346100b2575f3660031901126100b2576003546040516001600160a01b039091168152602090f35b5f80fd5b346100b25760203660031901126100b257600435805f525f60205260ff600260405f20015416156100fa575f525f602052600260405f200160ff1981541690555f80f35b60405162461bcd60e51b815260206004820152601960248201527f456c656374696f6e20697320616c726561647920656e646564000000000000006044820152606490fd5b346100b2575f3660031901126100b2576020600254604051908152f35b346100b25760203660031901126100b257600435805f525f60205260ff600260405f2001541661025e57805f525f602052600460405f20015461019e81610f0d565b6101a782610f3f565b9160015b818111156101c85750506101c460405192839283610cf3565b0390f35b845f525f602052600360405f2001815f5260205260405f2090604080516101ee81610d89565b83548152600261020060018601610e6d565b6020830190815294015491018190525f19820182811161024a576102459361023f9261022c8389610f96565b52516102388289610f96565b5286610f96565b50610f88565b6101ab565b634e487b7160e01b5f52601160045260245ffd5b60405162461bcd60e51b815260206004820152601860248201527f456c656374696f6e206973207374696c6c2061637469766500000000000000006044820152606490fd5b346100b25760203660031901126100b2576004355f525f60205260405f2080546102cf60018301610e6d565b91600460ff6002830154169101546102f96040519485948552608060208601526080850190610ccf565b911515604084015260608301520390f35b346100b25760403660031901126100b2576004356001600160a01b038116908190036100b2575f52600160205260405f206024355f52602052602060ff60405f2054166040519015158152f35b346100b25760403660031901126100b25760043567ffffffffffffffff81116100b257610388903690600401610dc7565b60243567ffffffffffffffff81116100b257366023820112156100b25780600401356103b381610e1d565b916103c16040519384610da5565b8183526024602084019260051b820101903682116100b25760248101925b8284106106f25785856103f3600254610f88565b80600255805f525f60205260405f2090815560018101835167ffffffffffffffff81116105e7576104248254610e35565b601f81116106ad575b50806020601f821160011461064b575f91610640575b508160011b915f199060031b1c1916179055905b60028201805460ff1916600117905560048201926003830191905f5b82518110156105fb576104868654610f88565b8087556104938285610f96565b5190604051916104a283610d89565b8183526020830190815260408301915f83525f528660205260405f209251835560018301905180519067ffffffffffffffff82116105e7576104e48354610e35565b601f81116105a2575b50602090601f8311600114610537579180600294926001989796945f9261052c575b50505f19600383901b1c191690871b1790555b5191015501610473565b015190508d8061050f565b90601f19831691845f52815f20925f5b81811061058a57509260019897969491928993836002989610610572575b505050811b019055610522565b01515f1960f88460031b161c191690558d8080610565565b92936020600181928786015181550195019301610547565b835f5260205f20601f840160051c810191602085106105dd575b601f0160051c01905b8181106105d257506104ed565b5f81556001016105c5565b90915081906105bc565b634e487b7160e01b5f52604160045260245ffd5b7f52be7c4e77b4de76b7607d621492061fe13b58597e72dfb5e51ab8f6187ed14182865461063b6040519283928352604060208401526040830190610ccf565b0390a1005b905085015186610443565b5f8481528181209250601f198416905b8181106106955750908360019493921061067d575b5050811b01905590610457565b8701515f1960f88460031b161c191690558680610670565b9192602060018192868c01518155019401920161065b565b825f5260205f20601f830160051c810191602084106106e8575b601f0160051c01905b8181106106dd575061042d565b5f81556001016106d0565b90915081906106c7565b833567ffffffffffffffff81116100b257602091610717839260243691870101610dc7565b8152019301926103df565b346100b25760803660031901126100b25760043560243560443567ffffffffffffffff81116100b257366023820112156100b257806004013561076481610e1d565b916107726040519384610da5565b818352602083016024819360051b830101913683116100b257602401905b8282106109fb57505050335f52600160205260405f20845f5260205260ff60405f2054166109a657835f525f6020526107d260ff600260405f20015416610fbe565b8215158061098e575b156109525760035460408051634b95153160e11b815260048101919091529251604484018190526001600160a01b039091169183916064830191905f5b81811061093957505050918180602094606435602483015203915afa90811561092e575f916108f3575b50156108be577fc31875ef3ed5138b71a0c1da7e494bc4d2ba4f567084ea481ec9c45f3a93948b91604091335f526001602052825f20825f52602052825f20600160ff19825416179055815f525f6020526003835f2001815f526020526002835f20016108af8154610f88565b905582519182526020820152a1005b60405162461bcd60e51b815260206004820152600d60248201526c24b73b30b634b2103b37ba32b960991b6044820152606490fd5b90506020813d602011610926575b8161090e60209383610da5565b810103126100b2575180151581036100b25783610842565b3d9150610901565b6040513d5f823e3d90fd5b8251845286945060209384019390920191600101610818565b60405162461bcd60e51b8152602060048201526014602482015273125b9d985b1a590818d85b991a59185d1948125160621b6044820152606490fd5b50835f525f602052600460405f2001548311156107db565b60405162461bcd60e51b815260206004820152602760248201527f596f75206861766520616c726561647920766f74656420696e207468697320656044820152663632b1ba34b7b760c91b6064820152608490fd5b8135815260209182019101610790565b346100b25760403660031901126100b25760043560243567ffffffffffffffff81116100b257610a3f903690600401610dc7565b90805f525f602052610a5a60ff600260405f20015416610fbe565b5f525f60205260405f2060048101610a728154610f88565b809155600360405192610a8484610d89565b8284526020840194855260408401925f84525f520160205260405f209151825560018201925192835167ffffffffffffffff81116105e757610ac68254610e35565b601f8111610b74575b506020601f8211600114610b0f578190600295965f92610b04575b50508160011b915f199060031b1c19161790555b51910155005b015190508680610aea565b601f19821695835f52815f20965f5b818110610b5c5750916002969791846001959410610b44575b505050811b019055610afe565b01515f1960f88460031b161c19169055868080610b37565b83830151895560019098019760209384019301610b1e565b825f5260205f20601f830160051c81019160208410610baf575b601f0160051c01905b818110610ba45750610acf565b5f8155600101610b97565b9091508190610b8e565b346100b25760203660031901126100b25760043590815f525f60205260ff600260405f2001541615610c8d5750805f525f602052600460405f200154610bfe81610f0d565b610c0782610f3f565b9160015b81811115610c245750506101c460405192839283610cf3565b845f525f602052600360405f2001815f5260205260405f209060408051610c4a81610d89565b835481526002610c5c60018601610e6d565b6020830190815294015491018190525f19820182811161024a57610c889361023f9261022c8389610f96565b610c0b565b62461bcd60e51b815260206004820152601760248201527f456c656374696f6e206d757374206265206163746976650000000000000000006044820152606490fd5b805180835260209291819084018484015e5f828201840152601f01601f1916010190565b604081016040825282518091526020606083019301905f5b818110610d73575050506020818303910152815180825260208201916020808360051b8301019401925f915b838310610d4657505050505090565b9091929394602080610d64600193601f198682030187528951610ccf565b97019301930191939290610d37565b8251855260209485019490920191600101610d0b565b6060810190811067ffffffffffffffff8211176105e757604052565b90601f8019910116810190811067ffffffffffffffff8211176105e757604052565b81601f820112156100b25780359067ffffffffffffffff82116105e75760405192610dfc601f8401601f191660200185610da5565b828452602083830101116100b257815f926020809301838601378301015290565b67ffffffffffffffff81116105e75760051b60200190565b90600182811c92168015610e63575b6020831014610e4f57565b634e487b7160e01b5f52602260045260245ffd5b91607f1691610e44565b9060405191825f825492610e8084610e35565b8084529360018116908115610eeb5750600114610ea7575b50610ea592500383610da5565b565b90505f9291925260205f20905f915b818310610ecf575050906020610ea5928201015f610e98565b6020919350806001915483858901015201910190918492610eb6565b905060209250610ea594915060ff191682840152151560051b8201015f610e98565b90610f1782610e1d565b610f246040519182610da5565b8281528092610f35601f1991610e1d565b0190602036910137565b90610f4982610e1d565b610f566040519182610da5565b8281528092610f67601f1991610e1d565b01905f5b828110610f7757505050565b806060602080938501015201610f6b565b5f19811461024a5760010190565b8051821015610faa5760209160051b010190565b634e487b7160e01b5f52603260045260245ffd5b15610fc557565b60405162461bcd60e51b8152602060048201526016602482015275456c656374696f6e206973206e6f742061637469766560501b6044820152606490fdfea2646970667358221220380baabbd089da28cab2535d77913ca2b3597b4e61d6236d8e0b08e31fbf882764736f6c634300081e0033",
    "sourcePath": "/home/lenovo/vote-blockchain/Système-de-Vote-Décentralisé-avec-Blockchain/backend/contracts/Vote.sol",
    "compiler": {
        "name": "solc",
        "version": "0.8.30+commit.73712a01"
    },
    "functionHashes": {
        "addCandidate(uint256,string)": "1750a3d0",
        "createElection(string,string[])": "349813b2",
        "elections(uint256)": "5e6fef01",
        "electionsCount()": "9a74c695",
        "endElection(uint256)": "9c98bcbb",
        "getLiveVotes(uint256)": "027d01f3",
        "getResults(uint256)": "81a60c0d",
        "hasVoted(address,uint256)": "42545825",
        "merkleTree()": "bb7df052",
        "vote(uint256,uint256,bytes32[],bytes32)": "223a594a"
    },
    "gasEstimates": {
        "creation": {
            "codeDepositCost": "830600",
            "executionCost": "infinite",
            "totalCost": "infinite"
        },
        "external": {
            "addCandidate(uint256,string)": "infinite",
            "createElection(string,string[])": "infinite",
            "elections(uint256)": "infinite",
            "electionsCount()": "2410",
            "endElection(uint256)": "26789",
            "getLiveVotes(uint256)": "infinite",
            "getResults(uint256)": "infinite",
            "hasVoted(address,uint256)": "2531",
            "merkleTree()": "2475",
            "vote(uint256,uint256,bytes32[],bytes32)": "infinite"
        }
    }
}