{
  "contractName": "Vote",
  "abi": [
    {
      "anonymous": false,
      "inputs": [
        {
          "indexed": false,
          "internalType": "uint256",
          "name": "id",
          "type": "uint256"
        },
        {
          "indexed": false,
          "internalType": "string",
          "name": "name",
          "type": "string"
        }
      ],
      "name": "ElectionCreated",
      "type": "event"
    },
    {
      "anonymous": false,
      "inputs": [
        {
          "indexed": false,
          "internalType": "uint256",
          "name": "electionId",
          "type": "uint256"
        },
        {
          "indexed": false,
          "internalType": "uint256",
          "name": "candidateId",
          "type": "uint256"
        }
      ],
      "name": "VoteCast",
      "type": "event"
    },
    {
      "inputs": [
        {
          "internalType": "uint256",
          "name": "",
          "type": "uint256"
        }
      ],
      "name": "elections",
      "outputs": [
        {
          "internalType": "uint256",
          "name": "id",
          "type": "uint256"
        },
        {
          "internalType": "string",
          "name": "name",
          "type": "string"
        },
        {
          "internalType": "bool",
          "name": "isActive",
          "type": "bool"
        },
        {
          "internalType": "uint256",
          "name": "candidatesCount",
          "type": "uint256"
        }
      ],
      "stateMutability": "view",
      "type": "function",
      "constant": true
    },
    {
      "inputs": [],
      "name": "electionsCount",
      "outputs": [
        {
          "internalType": "uint256",
          "name": "",
          "type": "uint256"
        }
      ],
      "stateMutability": "view",
      "type": "function",
      "constant": true
    },
    {
      "inputs": [
        {
          "internalType": "address",
          "name": "",
          "type": "address"
        },
        {
          "internalType": "uint256",
          "name": "",
          "type": "uint256"
        }
      ],
      "name": "hasVoted",
      "outputs": [
        {
          "internalType": "bool",
          "name": "",
          "type": "bool"
        }
      ],
      "stateMutability": "view",
      "type": "function",
      "constant": true
    },
    {
      "inputs": [],
      "name": "merkleRoot",
      "outputs": [
        {
          "internalType": "bytes32",
          "name": "",
          "type": "bytes32"
        }
      ],
      "stateMutability": "view",
      "type": "function",
      "constant": true
    },
    {
      "inputs": [
        {
          "internalType": "bytes32",
          "name": "_merkleRoot",
          "type": "bytes32"
        }
      ],
      "name": "setMerkleRoot",
      "outputs": [],
      "stateMutability": "nonpayable",
      "type": "function"
    },
    {
      "inputs": [
        {
          "internalType": "bytes32[]",
          "name": "proof",
          "type": "bytes32[]"
        },
        {
          "internalType": "bytes32",
          "name": "leaf",
          "type": "bytes32"
        }
      ],
      "name": "verifyVoter",
      "outputs": [
        {
          "internalType": "bool",
          "name": "",
          "type": "bool"
        }
      ],
      "stateMutability": "view",
      "type": "function",
      "constant": true
    },
    {
      "inputs": [
        {
          "internalType": "string",
          "name": "_name",
          "type": "string"
        },
        {
          "internalType": "string[]",
          "name": "_candidateNames",
          "type": "string[]"
        }
      ],
      "name": "createElection",
      "outputs": [],
      "stateMutability": "nonpayable",
      "type": "function"
    },
    {
      "inputs": [
        {
          "internalType": "uint256",
          "name": "_electionId",
          "type": "uint256"
        },
        {
          "internalType": "string",
          "name": "_name",
          "type": "string"
        }
      ],
      "name": "addCandidate",
      "outputs": [],
      "stateMutability": "nonpayable",
      "type": "function"
    },
    {
      "inputs": [
        {
          "internalType": "uint256",
          "name": "_electionId",
          "type": "uint256"
        },
        {
          "internalType": "uint256",
          "name": "_candidateId",
          "type": "uint256"
        },
        {
          "internalType": "bytes32[]",
          "name": "proof",
          "type": "bytes32[]"
        },
        {
          "internalType": "bytes32",
          "name": "leaf",
          "type": "bytes32"
        }
      ],
      "name": "vote",
      "outputs": [],
      "stateMutability": "nonpayable",
      "type": "function"
    },
    {
      "inputs": [
        {
          "internalType": "uint256",
          "name": "_electionId",
          "type": "uint256"
        }
      ],
      "name": "getResults",
      "outputs": [
        {
          "internalType": "uint256[]",
          "name": "",
          "type": "uint256[]"
        },
        {
          "internalType": "string[]",
          "name": "",
          "type": "string[]"
        }
      ],
      "stateMutability": "view",
      "type": "function",
      "constant": true
    },
    {
      "inputs": [
        {
          "internalType": "uint256",
          "name": "_electionId",
          "type": "uint256"
        }
      ],
      "name": "endElection",
      "outputs": [],
      "stateMutability": "nonpayable",
      "type": "function"
    }
  ],
  "bytecode": "0x608060405234801561001057600080fd5b50611acd806100206000396000f3fe608060405234801561001057600080fd5b50600436106100a95760003560e01c8063522d90f511610071578063522d90f5146101505780635e6fef01146101805780637cb64759146101b357806381a60c0d146101cf5780639a74c695146102005780639c98bcbb1461021e576100a9565b80631750a3d0146100ae578063223a594a146100ca5780632eb4a7ab146100e6578063349813b2146101045780634254582514610120575b600080fd5b6100c860048036038101906100c391906110bd565b61023a565b005b6100e460048036038101906100df9190611111565b61033e565b005b6100ee6105d1565b6040516100fb9190611574565b60405180910390f35b61011e60048036038101906101199190611028565b6105d7565b005b61013a60048036038101906101359190610f6f565b610771565b6040516101479190611559565b60405180910390f35b61016a60048036038101906101659190610fab565b6107a0565b6040516101779190611559565b60405180910390f35b61019a60048036038101906101959190611094565b61087e565b6040516101aa949392919061169a565b60405180910390f35b6101cd60048036038101906101c89190610fff565b610943565b005b6101e960048036038101906101e49190611094565b61094d565b6040516101f7929190611522565b60405180910390f35b610208610c6f565b604051610215919061164f565b60405180910390f35b61023860048036038101906102339190611094565b610c75565b005b60008083815260200190815260200160002060020160009054906101000a900460ff1661029c576040517f08c379a00000000000000000000000000000000000000000000000000000000081526004016102939061160f565b60405180910390fd5b600080600084815260200190815260200160002090508060040160008154809291906102c790611961565b919050555060405180606001604052808260040154815260200183815260200160008152508160030160008360040154815260200190815260200160002060008201518160000155602082015181600101908051906020019061032b929190610d08565b5060408201518160020155905050505050565b600160003373ffffffffffffffffffffffffffffffffffffffff1673ffffffffffffffffffffffffffffffffffffffff168152602001908152602001600020600085815260200190815260200160002060009054906101000a900460ff16156103dc576040517f08c379a00000000000000000000000000000000000000000000000000000000081526004016103d3906115af565b60405180910390fd5b60008085815260200190815260200160002060020160009054906101000a900460ff1661043e576040517f08c379a00000000000000000000000000000000000000000000000000000000081526004016104359061160f565b60405180910390fd5b6000831180156104635750600080858152602001908152602001600020600401548311155b6104a2576040517f08c379a00000000000000000000000000000000000000000000000000000000081526004016104999061162f565b60405180910390fd5b6104ac82826107a0565b6104eb576040517f08c379a00000000000000000000000000000000000000000000000000000000081526004016104e29061158f565b60405180910390fd5b60018060003373ffffffffffffffffffffffffffffffffffffffff1673ffffffffffffffffffffffffffffffffffffffff168152602001908152602001600020600086815260200190815260200160002060006101000a81548160ff0219169083151502179055506000808581526020019081526020016000206003016000848152602001908152602001600020600201600081548092919061058d90611961565b91905055507fc31875ef3ed5138b71a0c1da7e494bc4d2ba4f567084ea481ec9c45f3a93948b84846040516105c39291906116e6565b60405180910390a150505050565b60035481565b600260008154809291906105ea90611961565b919050555060008060006002548152602001908152602001600020905060025481600001819055508281600101908051906020019061062a929190610d08565b5060018160020160006101000a81548160ff02191690831515021790555060005b825181101561072e5781600401600081548092919061066990611961565b91905055506040518060600160405280836004015481526020018483815181106106bc577f4e487b7100000000000000000000000000000000000000000000000000000000600052603260045260246000fd5b6020026020010151815260200160008152508260030160008460040154815260200190815260200160002060008201518160000155602082015181600101908051906020019061070d929190610d08565b5060408201518160020155905050808061072690611961565b91505061064b565b507f52be7c4e77b4de76b7607d621492061fe13b58597e72dfb5e51ab8f6187ed14181600001548460405161076492919061166a565b60405180910390a1505050565b60016020528160005260406000206020528060005260406000206000915091509054906101000a900460ff1681565b60008082905060005b845181101561086f5760008582815181106107ed577f4e487b7100000000000000000000000000000000000000000000000000000000600052603260045260246000fd5b602002602001015190508083101561082f5782816040516020016108129291906114f6565b60405160208183030381529060405280519060200120925061085b565b80836040516020016108429291906114f6565b6040516020818303038152906040528051906020012092505b50808061086790611961565b9150506107a9565b50600354811491505092915050565b60006020528060005260406000206000915090508060000154908060010180546108a79061192f565b80601f01602080910402602001604051908101604052809291908181526020018280546108d39061192f565b80156109205780601f106108f557610100808354040283529160200191610920565b820191906000526020600020905b81548152906001019060200180831161090357829003601f168201915b5050505050908060020160009054906101000a900460ff16908060040154905084565b8060038190555050565b60608060008084815260200190815260200160002060020160009054906101000a900460ff16156109b3576040517f08c379a00000000000000000000000000000000000000000000000000000000081526004016109aa906115cf565b60405180910390fd5b600080600085815260200190815260200160002060040154905060008167ffffffffffffffff811115610a0f577f4e487b7100000000000000000000000000000000000000000000000000000000600052604160045260246000fd5b604051908082528060200260200182016040528015610a3d5781602001602082028036833780820191505090505b50905060008267ffffffffffffffff811115610a82577f4e487b7100000000000000000000000000000000000000000000000000000000600052604160045260246000fd5b604051908082528060200260200182016040528015610ab557816020015b6060815260200190600190039081610aa05790505b5090506000600190505b838111610c60576000806000898152602001908152602001600020600301600083815260200190815260200160002060405180606001604052908160008201548152602001600182018054610b139061192f565b80601f0160208091040260200160405190810160405280929190818152602001828054610b3f9061192f565b8015610b8c5780601f10610b6157610100808354040283529160200191610b8c565b820191906000526020600020905b815481529060010190602001808311610b6f57829003601f168201915b505050505081526020016002820154815250509050806040015184600184610bb49190611867565b81518110610beb577f4e487b7100000000000000000000000000000000000000000000000000000000600052603260045260246000fd5b602002602001018181525050806020015183600184610c0a9190611867565b81518110610c41577f4e487b7100000000000000000000000000000000000000000000000000000000600052603260045260246000fd5b6020026020010181905250508080610c5890611961565b915050610abf565b50818194509450505050915091565b60025481565b60008082815260200190815260200160002060020160009054906101000a900460ff16610cd7576040517f08c379a0000000000000000000000000000000000000000000000000000000008152600401610cce906115ef565b60405180910390fd5b600080600083815260200190815260200160002060020160006101000a81548160ff02191690831515021790555050565b828054610d149061192f565b90600052602060002090601f016020900481019282610d365760008555610d7d565b82601f10610d4f57805160ff1916838001178555610d7d565b82800160010185558215610d7d579182015b82811115610d7c578251825591602001919060010190610d61565b5b509050610d8a9190610d8e565b5090565b5b80821115610da7576000816000905550600101610d8f565b5090565b6000610dbe610db984611740565b61170f565b90508083825260208201905082856020860282011115610ddd57600080fd5b60005b85811015610e0d5781610df38882610f1b565b845260208401935060208301925050600181019050610de0565b5050509392505050565b6000610e2a610e258461176c565b61170f565b9050808382526020820190508260005b85811015610e6a5781358501610e508882610f30565b845260208401935060208301925050600181019050610e3a565b5050509392505050565b6000610e87610e8284611798565b61170f565b905082815260208101848484011115610e9f57600080fd5b610eaa8482856118ed565b509392505050565b600081359050610ec181611a52565b92915050565b600082601f830112610ed857600080fd5b8135610ee8848260208601610dab565b91505092915050565b600082601f830112610f0257600080fd5b8135610f12848260208601610e17565b91505092915050565b600081359050610f2a81611a69565b92915050565b600082601f830112610f4157600080fd5b8135610f51848260208601610e74565b91505092915050565b600081359050610f6981611a80565b92915050565b60008060408385031215610f8257600080fd5b6000610f9085828601610eb2565b9250506020610fa185828601610f5a565b9150509250929050565b60008060408385031215610fbe57600080fd5b600083013567ffffffffffffffff811115610fd857600080fd5b610fe485828601610ec7565b9250506020610ff585828601610f1b565b9150509250929050565b60006020828403121561101157600080fd5b600061101f84828501610f1b565b91505092915050565b6000806040838503121561103b57600080fd5b600083013567ffffffffffffffff81111561105557600080fd5b61106185828601610f30565b925050602083013567ffffffffffffffff81111561107e57600080fd5b61108a85828601610ef1565b9150509250929050565b6000602082840312156110a657600080fd5b60006110b484828501610f5a565b91505092915050565b600080604083850312156110d057600080fd5b60006110de85828601610f5a565b925050602083013567ffffffffffffffff8111156110fb57600080fd5b61110785828601610f30565b9150509250929050565b6000806000806080858703121561112757600080fd5b600061113587828801610f5a565b945050602061114687828801610f5a565b935050604085013567ffffffffffffffff81111561116357600080fd5b61116f87828801610ec7565b925050606061118087828801610f1b565b91505092959194509250565b600061119883836112c0565b905092915050565b60006111ac83836114d8565b60208301905092915050565b60006111c3826117e8565b6111cd8185611823565b9350836020820285016111df856117c8565b8060005b8581101561121b57848403895281516111fc858261118c565b945061120783611809565b925060208a019950506001810190506111e3565b50829750879550505050505092915050565b6000611238826117f3565b6112428185611834565b935061124d836117d8565b8060005b8381101561127e57815161126588826111a0565b975061127083611816565b925050600181019050611251565b5085935050505092915050565b611294816118ad565b82525050565b6112a3816118b9565b82525050565b6112ba6112b5826118b9565b6119aa565b82525050565b60006112cb826117fe565b6112d58185611845565b93506112e58185602086016118fc565b6112ee81611a41565b840191505092915050565b6000611304826117fe565b61130e8185611856565b935061131e8185602086016118fc565b61132781611a41565b840191505092915050565b600061133f600d83611856565b91507f496e76616c696420766f746572000000000000000000000000000000000000006000830152602082019050919050565b600061137f602783611856565b91507f596f75206861766520616c726561647920766f74656420696e2074686973206560008301527f6c656374696f6e000000000000000000000000000000000000000000000000006020830152604082019050919050565b60006113e5601883611856565b91507f456c656374696f6e206973207374696c6c2061637469766500000000000000006000830152602082019050919050565b6000611425601983611856565b91507f456c656374696f6e20697320616c726561647920656e646564000000000000006000830152602082019050919050565b6000611465601683611856565b91507f456c656374696f6e206973206e6f7420616374697665000000000000000000006000830152602082019050919050565b60006114a5601483611856565b91507f496e76616c69642063616e6469646174652049440000000000000000000000006000830152602082019050919050565b6114e1816118e3565b82525050565b6114f0816118e3565b82525050565b600061150282856112a9565b60208201915061151282846112a9565b6020820191508190509392505050565b6000604082019050818103600083015261153c818561122d565b9050818103602083015261155081846111b8565b90509392505050565b600060208201905061156e600083018461128b565b92915050565b6000602082019050611589600083018461129a565b92915050565b600060208201905081810360008301526115a881611332565b9050919050565b600060208201905081810360008301526115c881611372565b9050919050565b600060208201905081810360008301526115e8816113d8565b9050919050565b6000602082019050818103600083015261160881611418565b9050919050565b6000602082019050818103600083015261162881611458565b9050919050565b6000602082019050818103600083015261164881611498565b9050919050565b600060208201905061166460008301846114e7565b92915050565b600060408201905061167f60008301856114e7565b818103602083015261169181846112f9565b90509392505050565b60006080820190506116af60008301876114e7565b81810360208301526116c181866112f9565b90506116d0604083018561128b565b6116dd60608301846114e7565b95945050505050565b60006040820190506116fb60008301856114e7565b61170860208301846114e7565b9392505050565b6000604051905081810181811067ffffffffffffffff8211171561173657611735611a12565b5b8060405250919050565b600067ffffffffffffffff82111561175b5761175a611a12565b5b602082029050602081019050919050565b600067ffffffffffffffff82111561178757611786611a12565b5b602082029050602081019050919050565b600067ffffffffffffffff8211156117b3576117b2611a12565b5b601f19601f8301169050602081019050919050565b6000819050602082019050919050565b6000819050602082019050919050565b600081519050919050565b600081519050919050565b600081519050919050565b6000602082019050919050565b6000602082019050919050565b600082825260208201905092915050565b600082825260208201905092915050565b600082825260208201905092915050565b600082825260208201905092915050565b6000611872826118e3565b915061187d836118e3565b9250828210156118905761188f6119b4565b5b828203905092915050565b60006118a6826118c3565b9050919050565b60008115159050919050565b6000819050919050565b600073ffffffffffffffffffffffffffffffffffffffff82169050919050565b6000819050919050565b82818337600083830152505050565b60005b8381101561191a5780820151818401526020810190506118ff565b83811115611929576000848401525b50505050565b6000600282049050600182168061194757607f821691505b6020821081141561195b5761195a6119e3565b5b50919050565b600061196c826118e3565b91507fffffffffffffffffffffffffffffffffffffffffffffffffffffffffffffffff82141561199f5761199e6119b4565b5b600182019050919050565b6000819050919050565b7f4e487b7100000000000000000000000000000000000000000000000000000000600052601160045260246000fd5b7f4e487b7100000000000000000000000000000000000000000000000000000000600052602260045260246000fd5b7f4e487b7100000000000000000000000000000000000000000000000000000000600052604160045260246000fd5b6000601f19601f8301169050919050565b611a5b8161189b565b8114611a6657600080fd5b50565b611a72816118b9565b8114611a7d57600080fd5b50565b611a89816118e3565b8114611a9457600080fd5b5056fea2646970667358221220c750e1d82612d4b3a8c4b3eea195296601c2b4d7e614037949632cc2a6d4e31364736f6c63430008000033",
  "immutableReferences": {},
  "source": "// SPDX-License-Identifier: MIT\n// This file contains the main smart contract for the voting system, written in Solidity. \n// It defines the voting logic, including functions for creating elections, casting votes, and retrieving results.\n\npragma solidity ^0.8.0;\n\ncontract Vote {\n    struct Candidate {\n        uint id;\n        string name;\n        uint voteCount;\n    }\n\n    struct Election {\n        uint id;\n        string name;\n        bool isActive;\n        mapping(uint => Candidate) candidates;\n        uint candidatesCount;\n    }\n\n    mapping(uint => Election) public elections;\n    mapping(address => mapping(uint => bool)) public hasVoted;\n    uint public electionsCount;\n\n    bytes32 public merkleRoot; // Merkle Tree root for legal voters\n\n    event ElectionCreated(uint id, string name);\n    event VoteCast(uint electionId, uint candidateId);\n\n    // Set the Merkle Tree root (only admin can call this)\n    function setMerkleRoot(bytes32 _merkleRoot) public {\n        // Add access control (e.g., onlyOwner modifier) in a real implementation\n        merkleRoot = _merkleRoot;\n    }\n\n    // Verify if a voter is legal using Merkle Proof\n    function verifyVoter(bytes32[] memory proof, bytes32 leaf) public view returns (bool) {\n        bytes32 computedHash = leaf;\n\n        for (uint i = 0; i < proof.length; i++) {\n            bytes32 proofElement = proof[i];\n\n            if (computedHash < proofElement) {\n                computedHash = keccak256(abi.encodePacked(computedHash, proofElement));\n            } else {\n                computedHash = keccak256(abi.encodePacked(proofElement, computedHash));\n            }\n        }\n\n        return computedHash == merkleRoot;\n    }\n\n    function createElection(string memory _name, string[] memory _candidateNames) public {\n        electionsCount++;\n        Election storage newElection = elections[electionsCount];\n        newElection.id = electionsCount;\n        newElection.name = _name;\n        newElection.isActive = true;\n\n        for (uint i = 0; i < _candidateNames.length; i++) {\n            newElection.candidatesCount++;\n            newElection.candidates[newElection.candidatesCount] = Candidate({\n                id: newElection.candidatesCount,\n                name: _candidateNames[i],\n                voteCount: 0\n            });\n        }\n\n        emit ElectionCreated(newElection.id, _name);\n    }\n\n    function addCandidate(uint _electionId, string memory _name) public {\n        require(elections[_electionId].isActive, \"Election is not active\");\n        Election storage election = elections[_electionId];\n        election.candidatesCount++;\n        election.candidates[election.candidatesCount] = Candidate(election.candidatesCount, _name, 0);\n    }\n\n    function vote(uint _electionId, uint _candidateId, bytes32[] memory proof, bytes32 leaf) public {\n        require(!hasVoted[msg.sender][_electionId], \"You have already voted in this election\");\n        require(elections[_electionId].isActive, \"Election is not active\");\n        require(_candidateId > 0 && _candidateId <= elections[_electionId].candidatesCount, \"Invalid candidate ID\");\n\n        // Verify the voter using Merkle Proof\n        require(verifyVoter(proof, leaf), \"Invalid voter\");\n\n        hasVoted[msg.sender][_electionId] = true;\n        elections[_electionId].candidates[_candidateId].voteCount++;\n\n        emit VoteCast(_electionId, _candidateId);\n    }\n\n    function getResults(uint _electionId) public view returns (uint[] memory, string[] memory) {\n        require(!elections[_electionId].isActive, \"Election is still active\");\n        \n        uint candidatesCount = elections[_electionId].candidatesCount;\n        uint[] memory voteCounts = new uint[](candidatesCount);\n        string[] memory candidateNames = new string[](candidatesCount);\n\n        for (uint i = 1; i <= candidatesCount; i++) {\n            Candidate memory candidate = elections[_electionId].candidates[i];\n            voteCounts[i - 1] = candidate.voteCount;\n            candidateNames[i - 1] = candidate.name;\n        }\n\n        return (voteCounts, candidateNames);\n    }\n\n    function endElection(uint _electionId) public {\n        require(elections[_electionId].isActive, \"Election is already ended\");\n        elections[_electionId].isActive = false;\n    }\n}\n\n// Removed JavaScript code. Move it to a separate file.",
  "sourcePath": "c:\\Users\\HYPER\\Desktop\\bureau\\Master d'xellence\\S2\\Systmes rpartis et distribus\\projet\\Projet\\Systme-de-Vote-Dcentralis-avec-Blockchain\\backend\\contracts\\Vote.sol",
  "compiler": {
    "name": "solc",
    "version": "0.8.0+commit.c7dfd78e.Emscripten.clang"
  },
  "schemaVersion": "3.4.16",
  "updatedAt": "2025-04-12T19:14:27.249Z",
  "networkType": "ethereum",
  "devdoc": {
    "kind": "dev",
    "methods": {},
    "version": 1
  },
  "userdoc": {
    "kind": "user",
    "methods": {},
    "version": 1
  }
}